03300000        2030850441000143159030130010273     004592875           C R L FERREIRA CIA LTDA EPP   BANCO SANTANDER (BRASIL) S/A            227072020      000000040                                                                          
03340881T01  040 2030850441000143004592875           159030130010273     C R L FERREIRA CIA LTDA EPP                                                                                   0000000027072020                                         
0334088300001T 03159030130010273        00000000550502BB005505A      2507202000000000000200003315903                         001000012321415230NATHALIA LOPES                          01300102730000000000000004600000000                      
0334088300002U 030000000000000000000000000000000000000000000000000000000000000000000000000000000000000000000000000000000000000000000000002707202027072020000000000000000000000000000                              000                           
0334088300003T 02159030130010273        00000000550692BB005506A      2507202000000000000200003315903                         001000040754687805NATHALIA LOPES                          01300102730000000000000000000000000                      
0334088300004U 020000000000000000000000000000000000000000000000000000000000000000000000000000000000000000000000000000000000000000000000002707202027072020000000000000000000000000000                              000                           
0334088300005T 06159030130010273        00000000550692BB005506A      2507202000000000000200003315903                         001000040754687805NATHALIA LOPES                          01300102730000000000001540300000000                      
0334088300006U 060000000000000000000000000000000000000000000000000000000000000000000000020000000000000020000000000000000000000000000000002707202028072020000000000000000000000000000                              000                           
03340885         0000060000000000000000000000000000000000000000000000000000000000000000000000000000000000000000000000000000                                                                                                                     
03340889         000001000010                                                                                                                                                                                                                   
